:03000000080000F5
:030001000806806E
:03000200008180FA
:0300030000820078
:03000400008280F7
:0300050000830075
:03000600008380F4
:0300070000810075
:03000800008480F1
:030009000085006F
:03000A00008580EE
:03000B000086006C
:03000C000084006D
:03000D00000800E8
:03000E00008680E9
:03000F0000088066
:0300100000A680C7
:030011000806805E
:03001200000900E2
:030013000806805C
:0300140000098060
:0300150000A680C2
:03001600008680E1
:0300170008068058
:03001800000B6872
:0300190000CCE830
:03001A00000AE8F1
:03001B00008CE86E
:03001C00000B884E
:03001D0000EC886C
:03001E00000A08CD
:03001F0000AC88AA
:030020000806804F
:0300210000CE000E
:0300220000CD808E
:0300230000E700F3
:03002400000C00CD
:03002500020CE0EA
:03002600020CE0E9
:03002700020CE0E8
:03002800020CE0E7
:03002900000D00C7
:03002A000006804D
:03002B000006804C
:03002C000006804B
:03002D000006804A
:03002E00060E803B
:03002F0006108038
:0300300006108037
:0300310006108036
:0300320000A680A5
:03003300008680C4
:030034000806803B
:0300350000CE00FA
:0300360000CD807A
:0300370000E700DF
:03003800000C00B9
:03003900030CE0D5
:03003A00030CE0D4
:03003B00030CE0D3
:03003C00030CE0D2
:03003D00000D00B3
:03003E0000068039
:03003F0000068038
:0300400000068037
:0300410000068036
:03004200070E8026
:0300430007108023
:0300440007108022
:0300450007108021
:0300460000A68091
:03004700008680B0
:0300480008068027
:030049000011584B
:03004A000006D8D5
:03004B0008068024
:03004C0000116838
:03004D000007E8C1
:03004E000007E8C0
:03004F000087E83F
:03005000040FE8B2
:030051000410E8B0
:030052000410E8AF
:030053000410E8AE
:0300540000116830
:030055000007E8B9
:030056000007E8B8
:0300570000A7E817
:0300580008068017
:03005900040E880A
:03005A0004108807
:03005B0004108806
:03005C0004108805
:03005D00040F6825
:03005E000410E8A3
:03005F000410E8A2
:030060000410E8A1
:0300610000A68076
:03006200040FE8A0
:030063000410E89E
:030064000410E89D
:030065000410E89C
:030066000410087B
:03006700041088FA
:03006800041088F9
:03006900041088F8
:03006A0000110082
:03006B0000C6804C
:03006C000086808B
:03006D0000E6802A
:03006E0008068001
:03006F000000008E
:030070000080000D
:0300710000A000EC
:0300720000C000CB
:0300730008000082
:0300740000008009
:0300750000808088
:0300760000A08067
:0300770000C08046
:03007800080080FD
:0300790000918073
:03007A000086807D
:03007B0000A6805C
:03007C00080680F3
:03007D00040F0865
:03007E00080680F1
:03007F000000007E
:00000001FF
