:04000000207000006C
:040001002078000063
:0400020010080431AD
:0400030010080530AC
:04000400100900449B
:04000500100A0010CD
:04000600100B0000DB
:0400070010380400A9
:04000800100804498F
:04000900100804C80F
:04000A00100A0024B4
:04000B0010090008D0
:04000C00100B0000D5
:04000D003078000047
:04000E00387800003E
:04000F003078000045
:040010001068000074
:04001100106B000070
:0400120010280400AE
:040013001048000091
:040014001C98000034
:040015001C9B000030
:040016001C9800082A
:040017001C9B000826
:0400180038F80000B4
:040019003CF80000AF
:04001A003878000032
:04001B0018180000B1
:04001C001898000030
:04001D001358000074
:04001E00135B000070
:04001F00135800086A
:04002000135B000866
:040021003378000030
:04002200105800086A
:040023001078000051
:0400240000000000D8
:0400250000000000D7
:0400260000000000D6
:0400270000000000D5
:00000001FF
